{
  "contractName": "HospitalSystem",
  "abi": [
    {
      "inputs": [],
      "stateMutability": "nonpayable",
      "type": "constructor"
    },
    {
      "anonymous": false,
      "inputs": [
        {
          "indexed": false,
          "internalType": "string",
          "name": "labTestId",
          "type": "string"
        },
        {
          "indexed": false,
          "internalType": "string",
          "name": "doctorId",
          "type": "string"
        },
        {
          "indexed": false,
          "internalType": "string",
          "name": "patientId",
          "type": "string"
        },
        {
          "indexed": false,
          "internalType": "string",
          "name": "laboratoryId",
          "type": "string"
        },
        {
          "indexed": false,
          "internalType": "uint256",
          "name": "createdAt",
          "type": "uint256"
        },
        {
          "indexed": false,
          "internalType": "string",
          "name": "ipfsHash",
          "type": "string"
        }
      ],
      "name": "LabTestAdded",
      "type": "event"
    },
    {
      "anonymous": false,
      "inputs": [
        {
          "indexed": true,
          "internalType": "address",
          "name": "previousOwner",
          "type": "address"
        },
        {
          "indexed": true,
          "internalType": "address",
          "name": "newOwner",
          "type": "address"
        }
      ],
      "name": "OwnershipTransferred",
      "type": "event"
    },
    {
      "anonymous": false,
      "inputs": [
        {
          "indexed": false,
          "internalType": "string",
          "name": "cnic",
          "type": "string"
        },
        {
          "indexed": false,
          "internalType": "string",
          "name": "name",
          "type": "string"
        },
        {
          "indexed": false,
          "internalType": "string",
          "name": "guardian",
          "type": "string"
        },
        {
          "indexed": false,
          "internalType": "uint256",
          "name": "dateOfBirth",
          "type": "uint256"
        },
        {
          "indexed": false,
          "internalType": "string",
          "name": "emergencyContact",
          "type": "string"
        }
      ],
      "name": "PatientAdded",
      "type": "event"
    },
    {
      "anonymous": false,
      "inputs": [
        {
          "indexed": false,
          "internalType": "string",
          "name": "prescriptionId",
          "type": "string"
        },
        {
          "indexed": false,
          "internalType": "string",
          "name": "doctorId",
          "type": "string"
        },
        {
          "indexed": false,
          "internalType": "string",
          "name": "patientId",
          "type": "string"
        },
        {
          "indexed": false,
          "internalType": "string",
          "name": "pharmacyId",
          "type": "string"
        },
        {
          "indexed": false,
          "internalType": "uint256",
          "name": "createdAt",
          "type": "uint256"
        },
        {
          "indexed": false,
          "internalType": "string",
          "name": "ipfsHash",
          "type": "string"
        }
      ],
      "name": "PrescriptionAdded",
      "type": "event"
    },
    {
      "inputs": [],
      "name": "owner",
      "outputs": [
        {
          "internalType": "address",
          "name": "",
          "type": "address"
        }
      ],
      "stateMutability": "view",
      "type": "function"
    },
    {
      "inputs": [],
      "name": "renounceOwnership",
      "outputs": [],
      "stateMutability": "nonpayable",
      "type": "function"
    },
    {
      "inputs": [
        {
          "internalType": "address",
          "name": "newOwner",
          "type": "address"
        }
      ],
      "name": "transferOwnership",
      "outputs": [],
      "stateMutability": "nonpayable",
      "type": "function"
    },
    {
      "inputs": [
        {
          "internalType": "string",
          "name": "_cnic",
          "type": "string"
        }
      ],
      "name": "getPatient",
      "outputs": [
        {
          "components": [
            {
              "internalType": "string",
              "name": "cnic",
              "type": "string"
            },
            {
              "internalType": "string",
              "name": "name",
              "type": "string"
            },
            {
              "internalType": "string",
              "name": "guardian",
              "type": "string"
            },
            {
              "internalType": "uint256",
              "name": "dateOfBirth",
              "type": "uint256"
            },
            {
              "internalType": "string",
              "name": "emergencyContact",
              "type": "string"
            },
            {
              "internalType": "bool",
              "name": "exists",
              "type": "bool"
            }
          ],
          "internalType": "struct HospitalSystem.Patient",
          "name": "",
          "type": "tuple"
        }
      ],
      "stateMutability": "view",
      "type": "function"
    },
    {
      "inputs": [
        {
          "internalType": "string",
          "name": "_uuid",
          "type": "string"
        }
      ],
      "name": "getPrescription",
      "outputs": [
        {
          "components": [
            {
              "internalType": "string",
              "name": "doctorId",
              "type": "string"
            },
            {
              "internalType": "string",
              "name": "patientId",
              "type": "string"
            },
            {
              "internalType": "string",
              "name": "pharmacyId",
              "type": "string"
            },
            {
              "internalType": "string",
              "name": "file",
              "type": "string"
            },
            {
              "internalType": "uint256",
              "name": "createdAt",
              "type": "uint256"
            },
            {
              "internalType": "bool",
              "name": "completed",
              "type": "bool"
            },
            {
              "internalType": "bool",
              "name": "exists",
              "type": "bool"
            }
          ],
          "internalType": "struct HospitalSystem.Prescription",
          "name": "",
          "type": "tuple"
        }
      ],
      "stateMutability": "view",
      "type": "function"
    },
    {
      "inputs": [
        {
          "internalType": "string",
          "name": "_uuid",
          "type": "string"
        }
      ],
      "name": "getLabTest",
      "outputs": [
        {
          "components": [
            {
              "internalType": "string",
              "name": "doctorId",
              "type": "string"
            },
            {
              "internalType": "string",
              "name": "patientId",
              "type": "string"
            },
            {
              "internalType": "string",
              "name": "laboratoryId",
              "type": "string"
            },
            {
              "internalType": "string",
              "name": "file",
              "type": "string"
            },
            {
              "internalType": "uint256",
              "name": "createdAt",
              "type": "uint256"
            },
            {
              "internalType": "bool",
              "name": "completed",
              "type": "bool"
            },
            {
              "internalType": "bool",
              "name": "exists",
              "type": "bool"
            }
          ],
          "internalType": "struct HospitalSystem.LabTest",
          "name": "",
          "type": "tuple"
        }
      ],
      "stateMutability": "view",
      "type": "function"
    },
    {
      "inputs": [
        {
          "internalType": "string",
          "name": "_cnic",
          "type": "string"
        },
        {
          "internalType": "string",
          "name": "_name",
          "type": "string"
        },
        {
          "internalType": "string",
          "name": "_guardian",
          "type": "string"
        },
        {
          "internalType": "uint256",
          "name": "_dateOfBirth",
          "type": "uint256"
        },
        {
          "internalType": "string",
          "name": "_emergencyContact",
          "type": "string"
        }
      ],
      "name": "addPatient",
      "outputs": [],
      "stateMutability": "nonpayable",
      "type": "function"
    },
    {
      "inputs": [
        {
          "internalType": "string",
          "name": "_uuid",
          "type": "string"
        },
        {
          "internalType": "string",
          "name": "_doctorId",
          "type": "string"
        },
        {
          "internalType": "string",
          "name": "_patientId",
          "type": "string"
        },
        {
          "internalType": "string",
          "name": "_pharmacyId",
          "type": "string"
        },
        {
          "internalType": "string",
          "name": "_file",
          "type": "string"
        }
      ],
      "name": "addPrescription",
      "outputs": [],
      "stateMutability": "nonpayable",
      "type": "function"
    },
    {
      "inputs": [
        {
          "internalType": "string",
          "name": "_uuid",
          "type": "string"
        },
        {
          "internalType": "string",
          "name": "_doctorId",
          "type": "string"
        },
        {
          "internalType": "string",
          "name": "_patientId",
          "type": "string"
        },
        {
          "internalType": "string",
          "name": "_labId",
          "type": "string"
        },
        {
          "internalType": "string",
          "name": "_file",
          "type": "string"
        }
      ],
      "name": "addLabTest",
      "outputs": [],
      "stateMutability": "nonpayable",
      "type": "function"
    }
  ],
  "bytecode": "0x608060405234801561001057600080fd5b5061002d61002261003260201b60201c565b61003a60201b60201c565b6100fe565b600033905090565b60008060009054906101000a900473ffffffffffffffffffffffffffffffffffffffff169050816000806101000a81548173ffffffffffffffffffffffffffffffffffffffff021916908373ffffffffffffffffffffffffffffffffffffffff1602179055508173ffffffffffffffffffffffffffffffffffffffff168173ffffffffffffffffffffffffffffffffffffffff167f8be0079c531659141344cd1fd0a4f28419497f9722a3daafe3b4186f6b6457e060405160405180910390a35050565b611dec8061010d6000396000f3fe608060405234801561001057600080fd5b50600436106100935760003560e01c80638da5cb5b116100665780638da5cb5b1461010a578063bd73719814610128578063e79a7a2e14610144578063f2fde38b14610174578063fd206f091461019057610093565b80632b21e8081461009857806364a8cdcb146100c8578063715018a6146100e457806373bd0b68146100ee575b600080fd5b6100b260048036038101906100ad91906113e7565b6101c0565b6040516100bf9190611af0565b60405180910390f35b6100e260048036038101906100dd9190611537565b610480565b005b6100ec610631565b005b61010860048036038101906101039190611430565b6106b9565b005b610112610895565b60405161011f919061195e565b60405180910390f35b610142600480360381019061013d9190611430565b6108be565b005b61015e600480360381019061015991906113e7565b610a9a565b60405161016b9190611ace565b60405180910390f35b61018e600480360381019061018991906113ba565b610d3f565b005b6101aa60048036038101906101a591906113e7565b610e37565b6040516101b79190611aac565b60405180910390f35b6101c86111c3565b6002826040516101d89190611947565b90815260200160405180910390206040518060e001604052908160008201805461020190611c2a565b80601f016020809104026020016040519081016040528092919081815260200182805461022d90611c2a565b801561027a5780601f1061024f5761010080835404028352916020019161027a565b820191906000526020600020905b81548152906001019060200180831161025d57829003601f168201915b5050505050815260200160018201805461029390611c2a565b80601f01602080910402602001604051908101604052809291908181526020018280546102bf90611c2a565b801561030c5780601f106102e15761010080835404028352916020019161030c565b820191906000526020600020905b8154815290600101906020018083116102ef57829003601f168201915b5050505050815260200160028201805461032590611c2a565b80601f016020809104026020016040519081016040528092919081815260200182805461035190611c2a565b801561039e5780601f106103735761010080835404028352916020019161039e565b820191906000526020600020905b81548152906001019060200180831161038157829003601f168201915b505050505081526020016003820180546103b790611c2a565b80601f01602080910402602001604051908101604052809291908181526020018280546103e390611c2a565b80156104305780601f1061040557610100808354040283529160200191610430565b820191906000526020600020905b81548152906001019060200180831161041357829003601f168201915b50505050508152602001600482015481526020016005820160009054906101000a900460ff161515151581526020016005820160019054906101000a900460ff1615151515815250509050919050565b6104886110f7565b73ffffffffffffffffffffffffffffffffffffffff166104a6610895565b73ffffffffffffffffffffffffffffffffffffffff16146104fc576040517f08c379a00000000000000000000000000000000000000000000000000000000081526004016104f390611a8c565b60405180910390fd5b6040518060c001604052808681526020018581526020018481526020018381526020018281526020016001151581525060018660405161053c9190611947565b90815260200160405180910390206000820151816000019080519060200190610566929190611204565b506020820151816001019080519060200190610583929190611204565b5060408201518160020190805190602001906105a0929190611204565b506060820151816003015560808201518160040190805190602001906105c7929190611204565b5060a08201518160050160006101000a81548160ff0219169083151502179055509050507f7a8a7be2278e03a348be2d0af23d8e4185a657dfa43f318f684066e80888617285858585856040516106229594939291906119fd565b60405180910390a15050505050565b6106396110f7565b73ffffffffffffffffffffffffffffffffffffffff16610657610895565b73ffffffffffffffffffffffffffffffffffffffff16146106ad576040517f08c379a00000000000000000000000000000000000000000000000000000000081526004016106a490611a8c565b60405180910390fd5b6106b760006110ff565b565b6106c16110f7565b73ffffffffffffffffffffffffffffffffffffffff166106df610895565b73ffffffffffffffffffffffffffffffffffffffff1614610735576040517f08c379a000000000000000000000000000000000000000000000000000000000815260040161072c90611a8c565b60405180910390fd5b6040518060e001604052808581526020018481526020018381526020018281526020014281526020016000151581526020016001151581525060028660405161077e9190611947565b908152602001604051809103902060008201518160000190805190602001906107a8929190611204565b5060208201518160010190805190602001906107c5929190611204565b5060408201518160020190805190602001906107e2929190611204565b5060608201518160030190805190602001906107ff929190611204565b506080820151816004015560a08201518160050160006101000a81548160ff02191690831515021790555060c08201518160050160016101000a81548160ff0219169083151502179055509050507fe6ac056708eedf07cb2240c503a9903846e7a47edbb78c40d5ed592a2d40a99385858585428660405161088696959493929190611979565b60405180910390a15050505050565b60008060009054906101000a900473ffffffffffffffffffffffffffffffffffffffff16905090565b6108c66110f7565b73ffffffffffffffffffffffffffffffffffffffff166108e4610895565b73ffffffffffffffffffffffffffffffffffffffff161461093a576040517f08c379a000000000000000000000000000000000000000000000000000000000815260040161093190611a8c565b60405180910390fd5b6040518060e00160405280858152602001848152602001838152602001828152602001428152602001600015158152602001600115158152506003866040516109839190611947565b908152602001604051809103902060008201518160000190805190602001906109ad929190611204565b5060208201518160010190805190602001906109ca929190611204565b5060408201518160020190805190602001906109e7929190611204565b506060820151816003019080519060200190610a04929190611204565b506080820151816004015560a08201518160050160006101000a81548160ff02191690831515021790555060c08201518160050160016101000a81548160ff0219169083151502179055509050507fb3acaa1385ec0d657178e36fb3033a89f4775e6c4c692552ece53e3bf11b61da858585864286604051610a8b96959493929190611979565b60405180910390a15050505050565b610aa261128a565b600182604051610ab29190611947565b90815260200160405180910390206040518060c0016040529081600082018054610adb90611c2a565b80601f0160208091040260200160405190810160405280929190818152602001828054610b0790611c2a565b8015610b545780601f10610b2957610100808354040283529160200191610b54565b820191906000526020600020905b815481529060010190602001808311610b3757829003601f168201915b50505050508152602001600182018054610b6d90611c2a565b80601f0160208091040260200160405190810160405280929190818152602001828054610b9990611c2a565b8015610be65780601f10610bbb57610100808354040283529160200191610be6565b820191906000526020600020905b815481529060010190602001808311610bc957829003601f168201915b50505050508152602001600282018054610bff90611c2a565b80601f0160208091040260200160405190810160405280929190818152602001828054610c2b90611c2a565b8015610c785780601f10610c4d57610100808354040283529160200191610c78565b820191906000526020600020905b815481529060010190602001808311610c5b57829003601f168201915b5050505050815260200160038201548152602001600482018054610c9b90611c2a565b80601f0160208091040260200160405190810160405280929190818152602001828054610cc790611c2a565b8015610d145780601f10610ce957610100808354040283529160200191610d14565b820191906000526020600020905b815481529060010190602001808311610cf757829003601f168201915b505050505081526020016005820160009054906101000a900460ff1615151515815250509050919050565b610d476110f7565b73ffffffffffffffffffffffffffffffffffffffff16610d65610895565b73ffffffffffffffffffffffffffffffffffffffff1614610dbb576040517f08c379a0000000000000000000000000000000000000000000000000000000008152600401610db290611a8c565b60405180910390fd5b600073ffffffffffffffffffffffffffffffffffffffff168173ffffffffffffffffffffffffffffffffffffffff161415610e2b576040517f08c379a0000000000000000000000000000000000000000000000000000000008152600401610e2290611a6c565b60405180910390fd5b610e34816110ff565b50565b610e3f6112c2565b600382604051610e4f9190611947565b90815260200160405180910390206040518060e0016040529081600082018054610e7890611c2a565b80601f0160208091040260200160405190810160405280929190818152602001828054610ea490611c2a565b8015610ef15780601f10610ec657610100808354040283529160200191610ef1565b820191906000526020600020905b815481529060010190602001808311610ed457829003601f168201915b50505050508152602001600182018054610f0a90611c2a565b80601f0160208091040260200160405190810160405280929190818152602001828054610f3690611c2a565b8015610f835780601f10610f5857610100808354040283529160200191610f83565b820191906000526020600020905b815481529060010190602001808311610f6657829003601f168201915b50505050508152602001600282018054610f9c90611c2a565b80601f0160208091040260200160405190810160405280929190818152602001828054610fc890611c2a565b80156110155780601f10610fea57610100808354040283529160200191611015565b820191906000526020600020905b815481529060010190602001808311610ff857829003601f168201915b5050505050815260200160038201805461102e90611c2a565b80601f016020809104026020016040519081016040528092919081815260200182805461105a90611c2a565b80156110a75780601f1061107c576101008083540402835291602001916110a7565b820191906000526020600020905b81548152906001019060200180831161108a57829003601f168201915b50505050508152602001600482015481526020016005820160009054906101000a900460ff161515151581526020016005820160019054906101000a900460ff1615151515815250509050919050565b600033905090565b60008060009054906101000a900473ffffffffffffffffffffffffffffffffffffffff169050816000806101000a81548173ffffffffffffffffffffffffffffffffffffffff021916908373ffffffffffffffffffffffffffffffffffffffff1602179055508173ffffffffffffffffffffffffffffffffffffffff168173ffffffffffffffffffffffffffffffffffffffff167f8be0079c531659141344cd1fd0a4f28419497f9722a3daafe3b4186f6b6457e060405160405180910390a35050565b6040518060e0016040528060608152602001606081526020016060815260200160608152602001600081526020016000151581526020016000151581525090565b82805461121090611c2a565b90600052602060002090601f0160209004810192826112325760008555611279565b82601f1061124b57805160ff1916838001178555611279565b82800160010185558215611279579182015b8281111561127857825182559160200191906001019061125d565b5b5090506112869190611303565b5090565b6040518060c0016040528060608152602001606081526020016060815260200160008152602001606081526020016000151581525090565b6040518060e0016040528060608152602001606081526020016060815260200160608152602001600081526020016000151581526020016000151581525090565b5b8082111561131c576000816000905550600101611304565b5090565b600061133361132e84611b37565b611b12565b90508281526020810184848401111561134f5761134e611cf0565b5b61135a848285611be8565b509392505050565b60008135905061137181611d88565b92915050565b600082601f83011261138c5761138b611ceb565b5b813561139c848260208601611320565b91505092915050565b6000813590506113b481611d9f565b92915050565b6000602082840312156113d0576113cf611cfa565b5b60006113de84828501611362565b91505092915050565b6000602082840312156113fd576113fc611cfa565b5b600082013567ffffffffffffffff81111561141b5761141a611cf5565b5b61142784828501611377565b91505092915050565b600080600080600060a0868803121561144c5761144b611cfa565b5b600086013567ffffffffffffffff81111561146a57611469611cf5565b5b61147688828901611377565b955050602086013567ffffffffffffffff81111561149757611496611cf5565b5b6114a388828901611377565b945050604086013567ffffffffffffffff8111156114c4576114c3611cf5565b5b6114d088828901611377565b935050606086013567ffffffffffffffff8111156114f1576114f0611cf5565b5b6114fd88828901611377565b925050608086013567ffffffffffffffff81111561151e5761151d611cf5565b5b61152a88828901611377565b9150509295509295909350565b600080600080600060a0868803121561155357611552611cfa565b5b600086013567ffffffffffffffff81111561157157611570611cf5565b5b61157d88828901611377565b955050602086013567ffffffffffffffff81111561159e5761159d611cf5565b5b6115aa88828901611377565b945050604086013567ffffffffffffffff8111156115cb576115ca611cf5565b5b6115d788828901611377565b93505060606115e8888289016113a5565b925050608086013567ffffffffffffffff81111561160957611608611cf5565b5b61161588828901611377565b9150509295509295909350565b61162b81611ba0565b82525050565b61163a81611bb2565b82525050565b600061164b82611b68565b6116558185611b73565b9350611665818560208601611bf7565b61166e81611cff565b840191505092915050565b600061168482611b68565b61168e8185611b84565b935061169e818560208601611bf7565b6116a781611cff565b840191505092915050565b60006116bd82611b68565b6116c78185611b95565b93506116d7818560208601611bf7565b80840191505092915050565b60006116f0602683611b84565b91506116fb82611d10565b604082019050919050565b6000611713602083611b84565b915061171e82611d5f565b602082019050919050565b600060e08301600083015184820360008601526117468282611640565b915050602083015184820360208601526117608282611640565b9150506040830151848203604086015261177a8282611640565b915050606083015184820360608601526117948282611640565b91505060808301516117a96080860182611929565b5060a08301516117bc60a0860182611631565b5060c08301516117cf60c0860182611631565b508091505092915050565b600060c08301600083015184820360008601526117f78282611640565b915050602083015184820360208601526118118282611640565b9150506040830151848203604086015261182b8282611640565b91505060608301516118406060860182611929565b50608083015184820360808601526118588282611640565b91505060a083015161186d60a0860182611631565b508091505092915050565b600060e08301600083015184820360008601526118958282611640565b915050602083015184820360208601526118af8282611640565b915050604083015184820360408601526118c98282611640565b915050606083015184820360608601526118e38282611640565b91505060808301516118f86080860182611929565b5060a083015161190b60a0860182611631565b5060c083015161191e60c0860182611631565b508091505092915050565b61193281611bde565b82525050565b61194181611bde565b82525050565b600061195382846116b2565b915081905092915050565b60006020820190506119736000830184611622565b92915050565b600060c08201905081810360008301526119938189611679565b905081810360208301526119a78188611679565b905081810360408301526119bb8187611679565b905081810360608301526119cf8186611679565b90506119de6080830185611938565b81810360a08301526119f08184611679565b9050979650505050505050565b600060a0820190508181036000830152611a178188611679565b90508181036020830152611a2b8187611679565b90508181036040830152611a3f8186611679565b9050611a4e6060830185611938565b8181036080830152611a608184611679565b90509695505050505050565b60006020820190508181036000830152611a85816116e3565b9050919050565b60006020820190508181036000830152611aa581611706565b9050919050565b60006020820190508181036000830152611ac68184611729565b905092915050565b60006020820190508181036000830152611ae881846117da565b905092915050565b60006020820190508181036000830152611b0a8184611878565b905092915050565b6000611b1c611b2d565b9050611b288282611c5c565b919050565b6000604051905090565b600067ffffffffffffffff821115611b5257611b51611cbc565b5b611b5b82611cff565b9050602081019050919050565b600081519050919050565b600082825260208201905092915050565b600082825260208201905092915050565b600081905092915050565b6000611bab82611bbe565b9050919050565b60008115159050919050565b600073ffffffffffffffffffffffffffffffffffffffff82169050919050565b6000819050919050565b82818337600083830152505050565b60005b83811015611c15578082015181840152602081019050611bfa565b83811115611c24576000848401525b50505050565b60006002820490506001821680611c4257607f821691505b60208210811415611c5657611c55611c8d565b5b50919050565b611c6582611cff565b810181811067ffffffffffffffff82111715611c8457611c83611cbc565b5b80604052505050565b7f4e487b7100000000000000000000000000000000000000000000000000000000600052602260045260246000fd5b7f4e487b7100000000000000000000000000000000000000000000000000000000600052604160045260246000fd5b600080fd5b600080fd5b600080fd5b600080fd5b6000601f19601f8301169050919050565b7f4f776e61626c653a206e6577206f776e657220697320746865207a65726f206160008201527f6464726573730000000000000000000000000000000000000000000000000000602082015250565b7f4f776e61626c653a2063616c6c6572206973206e6f7420746865206f776e6572600082015250565b611d9181611ba0565b8114611d9c57600080fd5b50565b611da881611bde565b8114611db357600080fd5b5056fea2646970667358221220910bd86bc2196ba0655a7c142091003509cad503e8ad21789ca59aa4171735af64736f6c63430008070033",
  "immutableReferences": {},
  "source": "// SPDX-License-Identifier: GPL-3.0\npragma solidity 0.8.7;\n\nimport \"@openzeppelin/contracts/utils/Context.sol\";\nimport \"@openzeppelin/contracts/access/Ownable.sol\";\n\ncontract HospitalSystem is Ownable {\n\n    struct Patient {\n        string cnic;\n        string name;\n        string guardian;\n        uint256 dateOfBirth; // timestamp\n        string emergencyContact; // mobile number\n        bool exists;\n    }\n\n    struct Prescription {\n        string doctorId;\n        string patientId;\n        string pharmacyId;\n        string file;\n        uint createdAt;\n        bool completed;\n        bool exists;\n    }\n\n    struct LabTest {\n        string doctorId;\n        string patientId;\n        string laboratoryId;\n        string file;\n        uint createdAt;\n        bool completed;\n        bool exists;\n    }\n\n    mapping(string => Patient) private patients; // cnic to patient map\n    mapping(string => Prescription) private prescriptions;\n    mapping(string => LabTest) private labTests;\n\n    event PatientAdded (\n        string cnic,\n        string name,\n        string guardian,\n        uint256 dateOfBirth,\n        string emergencyContact\n    );\n\n    event PrescriptionAdded (\n        string prescriptionId,\n        string doctorId,\n        string patientId,\n        string pharmacyId,\n        uint createdAt,\n        string ipfsHash\n    );\n\n    event LabTestAdded (\n        string labTestId,\n        string doctorId,\n        string patientId,\n        string laboratoryId,\n        uint createdAt,\n        string ipfsHash\n    );\n\n    constructor() {}\n\n    function getPatient(string memory _cnic) public view returns (Patient memory) {\n        return patients[_cnic];\n    }\n\n    function getPrescription(string memory _uuid) public view returns (Prescription memory) {\n        return prescriptions[_uuid];\n    }\n\n    function getLabTest(string memory _uuid) public view returns (LabTest memory) {\n        return labTests[_uuid];\n    }\n\n    function addPatient(string memory _cnic, string memory _name, string memory _guardian, uint256 _dateOfBirth, string memory _emergencyContact)\n    public onlyOwner {\n        patients[_cnic] = Patient(_cnic, _name, _guardian, _dateOfBirth, _emergencyContact, true);\n        emit PatientAdded(_cnic, _name, _guardian, _dateOfBirth, _emergencyContact);\n    }\n\n    function addPrescription(string memory _uuid, string memory _doctorId, string memory _patientId, string memory _pharmacyId, string memory _file)\n    public onlyOwner {\n        prescriptions[_uuid] = Prescription(_doctorId, _patientId, _pharmacyId, _file, block.timestamp, false, true);\n        emit PrescriptionAdded(_uuid, _doctorId, _patientId, _pharmacyId, block.timestamp, _file);\n    }\n\n    function addLabTest(string memory _uuid, string memory _doctorId, string memory _patientId, string memory _labId, string memory _file)\n    public onlyOwner {\n        labTests[_uuid] = LabTest(_doctorId, _patientId, _labId, _file, block.timestamp, false, true);\n        emit LabTestAdded(_uuid, _doctorId, _patientId, _patientId, block.timestamp, _file);\n    }\n\n}\n",
  "sourcePath": "/Users/dicota/Documents/Inter-Hospital Medical System/smart-contracts/contracts/HospitalSystem.sol",
  "compiler": {
    "name": "solc",
    "version": "0.8.7+commit.e28d00a7.Emscripten.clang"
  },
  "schemaVersion": "3.4.7",
  "updatedAt": "2022-05-15T17:55:40.407Z",
  "devdoc": {
    "kind": "dev",
    "methods": {
      "owner()": {
        "details": "Returns the address of the current owner."
      },
      "renounceOwnership()": {
        "details": "Leaves the contract without owner. It will not be possible to call `onlyOwner` functions anymore. Can only be called by the current owner. NOTE: Renouncing ownership will leave the contract without an owner, thereby removing any functionality that is only available to the owner."
      },
      "transferOwnership(address)": {
        "details": "Transfers ownership of the contract to a new account (`newOwner`). Can only be called by the current owner."
      }
    },
    "version": 1
  },
  "userdoc": {
    "kind": "user",
    "methods": {},
    "version": 1
  }
}